{
  "contractName": "Game",
  "abi": [
    {
      "inputs": [
        {
          "internalType": "contract Token",
          "name": "_token",
          "type": "address"
        }
      ],
      "stateMutability": "nonpayable",
      "type": "constructor"
    },
    {
      "anonymous": false,
      "inputs": [
        {
          "indexed": false,
          "internalType": "address",
          "name": "_receiver",
          "type": "address"
        },
        {
          "indexed": false,
          "internalType": "uint256",
          "name": "_amount",
          "type": "uint256"
        }
      ],
      "name": "Issued",
      "type": "event"
    },
    {
      "inputs": [],
      "name": "name",
      "outputs": [
        {
          "internalType": "string",
          "name": "",
          "type": "string"
        }
      ],
      "stateMutability": "view",
      "type": "function",
      "constant": true
    },
    {
      "inputs": [
        {
          "internalType": "address",
          "name": "",
          "type": "address"
        }
      ],
      "name": "rewardEarned",
      "outputs": [
        {
          "internalType": "uint256",
          "name": "",
          "type": "uint256"
        }
      ],
      "stateMutability": "view",
      "type": "function",
      "constant": true
    },
    {
      "inputs": [],
      "name": "token",
      "outputs": [
        {
          "internalType": "contract Token",
          "name": "",
          "type": "address"
        }
      ],
      "stateMutability": "view",
      "type": "function",
      "constant": true
    },
    {
      "inputs": [
        {
          "internalType": "uint256",
          "name": "_amount",
          "type": "uint256"
        }
      ],
      "name": "issueRewards",
      "outputs": [],
      "stateMutability": "nonpayable",
      "type": "function"
    }
  ],
  "bytecode": "0x60806040526040518060400160405280601481526020017f426c6f636b636861696e205175697a2047616d650000000000000000000000008152506000908051906020019062000051929190620000cd565b503480156200005f57600080fd5b5060405162000a1c38038062000a1c8339818101604052810190620000859190620001fb565b80600160006101000a81548173ffffffffffffffffffffffffffffffffffffffff021916908373ffffffffffffffffffffffffffffffffffffffff1602179055505062000292565b828054620000db906200025c565b90600052602060002090601f016020900481019282620000ff57600085556200014b565b82601f106200011a57805160ff19168380011785556200014b565b828001600101855582156200014b579182015b828111156200014a5782518255916020019190600101906200012d565b5b5090506200015a91906200015e565b5090565b5b80821115620001795760008160009055506001016200015f565b5090565b600080fd5b600073ffffffffffffffffffffffffffffffffffffffff82169050919050565b6000620001af8262000182565b9050919050565b6000620001c382620001a2565b9050919050565b620001d581620001b6565b8114620001e157600080fd5b50565b600081519050620001f581620001ca565b92915050565b6000602082840312156200021457620002136200017d565b5b60006200022484828501620001e4565b91505092915050565b7f4e487b7100000000000000000000000000000000000000000000000000000000600052602260045260246000fd5b600060028204905060018216806200027557607f821691505b602082108114156200028c576200028b6200022d565b5b50919050565b61077a80620002a26000396000f3fe608060405234801561001057600080fd5b506004361061004c5760003560e01c806306fdde031461005157806316ba6bf31461006f578063a85e70b61461009f578063fc0c546a146100bb575b600080fd5b6100596100d9565b60405161006691906103ce565b60405180910390f35b61008960048036038101906100849190610453565b610167565b6040516100969190610499565b60405180910390f35b6100b960048036038101906100b491906104e0565b61017f565b005b6100c361030f565b6040516100d0919061056c565b60405180910390f35b600080546100e6906105b6565b80601f0160208091040260200160405190810160405280929190818152602001828054610112906105b6565b801561015f5780601f106101345761010080835404028352916020019161015f565b820191906000526020600020905b81548152906001019060200180831161014257829003601f168201915b505050505081565b60026020528060005260406000206000915090505481565b6000600260003373ffffffffffffffffffffffffffffffffffffffff1673ffffffffffffffffffffffffffffffffffffffff1681526020019081526020016000205414610201576040517f08c379a00000000000000000000000000000000000000000000000000000000081526004016101f89061065a565b60405180910390fd5b60008111610244576040517f08c379a000000000000000000000000000000000000000000000000000000000815260040161023b906106ec565b60405180910390fd5b600160009054906101000a900473ffffffffffffffffffffffffffffffffffffffff1673ffffffffffffffffffffffffffffffffffffffff166340c10f1933836040518363ffffffff1660e01b81526004016102a192919061071b565b600060405180830381600087803b1580156102bb57600080fd5b505af11580156102cf573d6000803e3d6000fd5b505050507fa59f12e354e8cd10bb74c559844c2dd69a5458e31fe56c7594c62ca57480509a338260405161030492919061071b565b60405180910390a150565b600160009054906101000a900473ffffffffffffffffffffffffffffffffffffffff1681565b600081519050919050565b600082825260208201905092915050565b60005b8381101561036f578082015181840152602081019050610354565b8381111561037e576000848401525b50505050565b6000601f19601f8301169050919050565b60006103a082610335565b6103aa8185610340565b93506103ba818560208601610351565b6103c381610384565b840191505092915050565b600060208201905081810360008301526103e88184610395565b905092915050565b600080fd5b600073ffffffffffffffffffffffffffffffffffffffff82169050919050565b6000610420826103f5565b9050919050565b61043081610415565b811461043b57600080fd5b50565b60008135905061044d81610427565b92915050565b600060208284031215610469576104686103f0565b5b60006104778482850161043e565b91505092915050565b6000819050919050565b61049381610480565b82525050565b60006020820190506104ae600083018461048a565b92915050565b6104bd81610480565b81146104c857600080fd5b50565b6000813590506104da816104b4565b92915050565b6000602082840312156104f6576104f56103f0565b5b6000610504848285016104cb565b91505092915050565b6000819050919050565b600061053261052d610528846103f5565b61050d565b6103f5565b9050919050565b600061054482610517565b9050919050565b600061055682610539565b9050919050565b6105668161054b565b82525050565b6000602082019050610581600083018461055d565b92915050565b7f4e487b7100000000000000000000000000000000000000000000000000000000600052602260045260246000fd5b600060028204905060018216806105ce57607f821691505b602082108114156105e2576105e1610587565b5b50919050565b7f4572726f723a20596f75206861766520616c7265616479206561726e6564207260008201527f6577617264730000000000000000000000000000000000000000000000000000602082015250565b6000610644602683610340565b915061064f826105e8565b604082019050919050565b6000602082019050818103600083015261067381610637565b9050919050565b7f4572726f723a2072657761726420616d6f756e74206d7573742062652067726560008201527f61746572207468616e2030000000000000000000000000000000000000000000602082015250565b60006106d6602b83610340565b91506106e18261067a565b604082019050919050565b60006020820190508181036000830152610705816106c9565b9050919050565b61071581610415565b82525050565b6000604082019050610730600083018561070c565b61073d602083018461048a565b939250505056fea2646970667358221220034c5d531d5a20014ccb997fa2463321a3d8f6604d5adc358efd3e774a7b574664736f6c634300080a0033",
  "immutableReferences": {},
  "source": "// SPDX-License-Identifier: MIT\r\npragma solidity >=0.4.22 <0.9.0;\r\n\r\nimport './Token.sol';\r\n\r\ncontract Game {\r\n    string public name = \"Blockchain Quiz Game\";\r\n    Token public token;\r\n\r\n    constructor(Token _token) {\r\n        token = _token;\r\n    }\r\n\r\n    mapping (address => uint256) public rewardEarned;\r\n\r\n    event Issued(address _receiver, uint _amount);\r\n\r\n    function issueRewards( uint256 _amount) public {\r\n        // Require previous rewards to be 0\r\n        require(rewardEarned[msg.sender] == 0, 'Error: You have already earned rewards');\r\n        // Require _amount to be greater than 0\r\n        require(_amount > 0,'Error: reward amount must be greater than 0');\r\n        // Mint rewards to the msg.sender\r\n        token.mint(msg.sender, _amount);\r\n        // Emit event\r\n        emit Issued(msg.sender, _amount);\r\n    }\r\n}",
  "sourcePath": "E:\\Projects\\blockchain\\blockchain-game\\contracts\\Game.sol",
  "compiler": {
    "name": "solc",
    "version": "0.8.10+commit.fc410830.Emscripten.clang"
  },
  "schemaVersion": "3.4.3",
  "updatedAt": "2021-11-18T10:59:59.281Z",
  "networkType": "ethereum",
  "devdoc": {
    "kind": "dev",
    "methods": {},
    "version": 1
  },
  "userdoc": {
    "kind": "user",
    "methods": {},
    "version": 1
  }
}